{
  "_format": "hh-sol-artifact-1",
  "contractName": "TayoFriends",
  "sourceName": "contracts/TayoFriends.sol",
  "abi": [
    {
      "inputs": [
        {
          "internalType": "string",
          "name": "baseURI_",
          "type": "string"
        }
      ],
      "stateMutability": "nonpayable",
      "type": "constructor"
    },
    {
      "anonymous": false,
      "inputs": [
        {
          "indexed": true,
          "internalType": "address",
          "name": "owner",
          "type": "address"
        },
        {
          "indexed": true,
          "internalType": "address",
          "name": "approved",
          "type": "address"
        },
        {
          "indexed": true,
          "internalType": "uint256",
          "name": "tokenId",
          "type": "uint256"
        }
      ],
      "name": "Approval",
      "type": "event"
    },
    {
      "anonymous": false,
      "inputs": [
        {
          "indexed": true,
          "internalType": "address",
          "name": "owner",
          "type": "address"
        },
        {
          "indexed": true,
          "internalType": "address",
          "name": "operator",
          "type": "address"
        },
        {
          "indexed": false,
          "internalType": "bool",
          "name": "approved",
          "type": "bool"
        }
      ],
      "name": "ApprovalForAll",
      "type": "event"
    },
    {
      "anonymous": false,
      "inputs": [
        {
          "indexed": false,
          "internalType": "uint256",
          "name": "_fromTokenId",
          "type": "uint256"
        },
        {
          "indexed": false,
          "internalType": "uint256",
          "name": "_toTokenId",
          "type": "uint256"
        }
      ],
      "name": "BatchMetadataUpdate",
      "type": "event"
    },
    {
      "anonymous": false,
      "inputs": [
        {
          "indexed": false,
          "internalType": "uint256",
          "name": "_tokenId",
          "type": "uint256"
        }
      ],
      "name": "MetadataUpdate",
      "type": "event"
    },
    {
      "anonymous": false,
      "inputs": [
        {
          "indexed": true,
          "internalType": "address",
          "name": "previousOwner",
          "type": "address"
        },
        {
          "indexed": true,
          "internalType": "address",
          "name": "newOwner",
          "type": "address"
        }
      ],
      "name": "OwnershipTransferred",
      "type": "event"
    },
    {
      "anonymous": false,
      "inputs": [
        {
          "indexed": true,
          "internalType": "address",
          "name": "from",
          "type": "address"
        },
        {
          "indexed": true,
          "internalType": "address",
          "name": "to",
          "type": "address"
        },
        {
          "indexed": true,
          "internalType": "uint256",
          "name": "tokenId",
          "type": "uint256"
        }
      ],
      "name": "Transfer",
      "type": "event"
    },
    {
      "inputs": [
        {
          "internalType": "address",
          "name": "to",
          "type": "address"
        },
        {
          "internalType": "uint256",
          "name": "tokenId",
          "type": "uint256"
        }
      ],
      "name": "approve",
      "outputs": [],
      "stateMutability": "nonpayable",
      "type": "function"
    },
    {
      "inputs": [
        {
          "internalType": "address",
          "name": "owner",
          "type": "address"
        }
      ],
      "name": "balanceOf",
      "outputs": [
        {
          "internalType": "uint256",
          "name": "",
          "type": "uint256"
        }
      ],
      "stateMutability": "view",
      "type": "function"
    },
    {
      "inputs": [
        {
          "internalType": "uint256",
          "name": "tokenId",
          "type": "uint256"
        }
      ],
      "name": "getApproved",
      "outputs": [
        {
          "internalType": "address",
          "name": "",
          "type": "address"
        }
      ],
      "stateMutability": "view",
      "type": "function"
    },
    {
      "inputs": [
        {
          "internalType": "address",
          "name": "owner",
          "type": "address"
        },
        {
          "internalType": "address",
          "name": "operator",
          "type": "address"
        }
      ],
      "name": "isApprovedForAll",
      "outputs": [
        {
          "internalType": "bool",
          "name": "",
          "type": "bool"
        }
      ],
      "stateMutability": "view",
      "type": "function"
    },
    {
      "inputs": [],
      "name": "maxTokenId",
      "outputs": [
        {
          "internalType": "uint256",
          "name": "",
          "type": "uint256"
        }
      ],
      "stateMutability": "view",
      "type": "function"
    },
    {
      "inputs": [],
      "name": "mint",
      "outputs": [],
      "stateMutability": "payable",
      "type": "function"
    },
    {
      "inputs": [],
      "name": "mintPrice",
      "outputs": [
        {
          "internalType": "uint256",
          "name": "",
          "type": "uint256"
        }
      ],
      "stateMutability": "view",
      "type": "function"
    },
    {
      "inputs": [],
      "name": "name",
      "outputs": [
        {
          "internalType": "string",
          "name": "",
          "type": "string"
        }
      ],
      "stateMutability": "view",
      "type": "function"
    },
    {
      "inputs": [],
      "name": "owner",
      "outputs": [
        {
          "internalType": "address",
          "name": "",
          "type": "address"
        }
      ],
      "stateMutability": "view",
      "type": "function"
    },
    {
      "inputs": [
        {
          "internalType": "uint256",
          "name": "tokenId",
          "type": "uint256"
        }
      ],
      "name": "ownerOf",
      "outputs": [
        {
          "internalType": "address",
          "name": "",
          "type": "address"
        }
      ],
      "stateMutability": "view",
      "type": "function"
    },
    {
      "inputs": [],
      "name": "renounceOwnership",
      "outputs": [],
      "stateMutability": "nonpayable",
      "type": "function"
    },
    {
      "inputs": [
        {
          "internalType": "address",
          "name": "from",
          "type": "address"
        },
        {
          "internalType": "address",
          "name": "to",
          "type": "address"
        },
        {
          "internalType": "uint256",
          "name": "tokenId",
          "type": "uint256"
        }
      ],
      "name": "safeTransferFrom",
      "outputs": [],
      "stateMutability": "nonpayable",
      "type": "function"
    },
    {
      "inputs": [
        {
          "internalType": "address",
          "name": "from",
          "type": "address"
        },
        {
          "internalType": "address",
          "name": "to",
          "type": "address"
        },
        {
          "internalType": "uint256",
          "name": "tokenId",
          "type": "uint256"
        },
        {
          "internalType": "bytes",
          "name": "data",
          "type": "bytes"
        }
      ],
      "name": "safeTransferFrom",
      "outputs": [],
      "stateMutability": "nonpayable",
      "type": "function"
    },
    {
      "inputs": [
        {
          "internalType": "address",
          "name": "operator",
          "type": "address"
        },
        {
          "internalType": "bool",
          "name": "approved",
          "type": "bool"
        }
      ],
      "name": "setApprovalForAll",
      "outputs": [],
      "stateMutability": "nonpayable",
      "type": "function"
    },
    {
      "inputs": [
        {
          "internalType": "string",
          "name": "baseURI_",
          "type": "string"
        }
      ],
      "name": "setBaseURI",
      "outputs": [],
      "stateMutability": "nonpayable",
      "type": "function"
    },
    {
      "inputs": [
        {
          "internalType": "uint256",
          "name": "newPrice",
          "type": "uint256"
        }
      ],
      "name": "setMintPrice",
      "outputs": [],
      "stateMutability": "nonpayable",
      "type": "function"
    },
    {
      "inputs": [
        {
          "internalType": "bytes4",
          "name": "interfaceId",
          "type": "bytes4"
        }
      ],
      "name": "supportsInterface",
      "outputs": [
        {
          "internalType": "bool",
          "name": "",
          "type": "bool"
        }
      ],
      "stateMutability": "view",
      "type": "function"
    },
    {
      "inputs": [],
      "name": "symbol",
      "outputs": [
        {
          "internalType": "string",
          "name": "",
          "type": "string"
        }
      ],
      "stateMutability": "view",
      "type": "function"
    },
    {
      "inputs": [
        {
          "internalType": "uint256",
          "name": "tokenId",
          "type": "uint256"
        }
      ],
      "name": "tokenURI",
      "outputs": [
        {
          "internalType": "string",
          "name": "",
          "type": "string"
        }
      ],
      "stateMutability": "view",
      "type": "function"
    },
    {
      "inputs": [
        {
          "internalType": "address",
          "name": "from",
          "type": "address"
        },
        {
          "internalType": "address",
          "name": "to",
          "type": "address"
        },
        {
          "internalType": "uint256",
          "name": "tokenId",
          "type": "uint256"
        }
      ],
      "name": "transferFrom",
      "outputs": [],
      "stateMutability": "nonpayable",
      "type": "function"
    },
    {
      "inputs": [
        {
          "internalType": "address",
          "name": "newOwner",
          "type": "address"
        }
      ],
      "name": "transferOwnership",
      "outputs": [],
      "stateMutability": "nonpayable",
      "type": "function"
    },
    {
      "inputs": [],
      "name": "withdraw",
      "outputs": [],
      "stateMutability": "nonpayable",
      "type": "function"
    }
  ],
  "bytecode": "0x608060405266038d7ea4c68000600a553480156200001c57600080fd5b5060405162003ad838038062003ad883398181016040528101906200004291906200044d565b6040518060400160405280601b81526020017f5461796f20546865204c6974746c652042757320467269656e647300000000008152506040518060400160405280600481526020017f54544246000000000000000000000000000000000000000000000000000000008152508160009081620000bf9190620006e9565b508060019081620000d19190620006e9565b505050620000f4620000e86200010c60201b60201c565b6200011460201b60201c565b6200010581620001da60201b60201c565b5062000853565b600033905090565b6000600760009054906101000a900473ffffffffffffffffffffffffffffffffffffffff16905081600760006101000a81548173ffffffffffffffffffffffffffffffffffffffff021916908373ffffffffffffffffffffffffffffffffffffffff1602179055508173ffffffffffffffffffffffffffffffffffffffff168173ffffffffffffffffffffffffffffffffffffffff167f8be0079c531659141344cd1fd0a4f28419497f9722a3daafe3b4186f6b6457e060405160405180910390a35050565b620001ea620001ff60201b60201c565b8060099081620001fb9190620006e9565b5050565b6200020f6200010c60201b60201c565b73ffffffffffffffffffffffffffffffffffffffff16620002356200029060201b60201c565b73ffffffffffffffffffffffffffffffffffffffff16146200028e576040517f08c379a0000000000000000000000000000000000000000000000000000000008152600401620002859062000831565b60405180910390fd5b565b6000600760009054906101000a900473ffffffffffffffffffffffffffffffffffffffff16905090565b6000604051905090565b600080fd5b600080fd5b600080fd5b600080fd5b6000601f19601f8301169050919050565b7f4e487b7100000000000000000000000000000000000000000000000000000000600052604160045260246000fd5b6200032382620002d8565b810181811067ffffffffffffffff82111715620003455762000344620002e9565b5b80604052505050565b60006200035a620002ba565b905062000368828262000318565b919050565b600067ffffffffffffffff8211156200038b576200038a620002e9565b5b6200039682620002d8565b9050602081019050919050565b60005b83811015620003c3578082015181840152602081019050620003a6565b60008484015250505050565b6000620003e6620003e0846200036d565b6200034e565b905082815260208101848484011115620004055762000404620002d3565b5b62000412848285620003a3565b509392505050565b600082601f830112620004325762000431620002ce565b5b815162000444848260208601620003cf565b91505092915050565b600060208284031215620004665762000465620002c4565b5b600082015167ffffffffffffffff811115620004875762000486620002c9565b5b62000495848285016200041a565b91505092915050565b600081519050919050565b7f4e487b7100000000000000000000000000000000000000000000000000000000600052602260045260246000fd5b60006002820490506001821680620004f157607f821691505b602082108103620005075762000506620004a9565b5b50919050565b60008190508160005260206000209050919050565b60006020601f8301049050919050565b600082821b905092915050565b600060088302620005717fffffffffffffffffffffffffffffffffffffffffffffffffffffffffffffffff8262000532565b6200057d868362000532565b95508019841693508086168417925050509392505050565b6000819050919050565b6000819050919050565b6000620005ca620005c4620005be8462000595565b6200059f565b62000595565b9050919050565b6000819050919050565b620005e683620005a9565b620005fe620005f582620005d1565b8484546200053f565b825550505050565b600090565b6200061562000606565b62000622818484620005db565b505050565b5b818110156200064a576200063e6000826200060b565b60018101905062000628565b5050565b601f821115620006995762000663816200050d565b6200066e8462000522565b810160208510156200067e578190505b620006966200068d8562000522565b83018262000627565b50505b505050565b600082821c905092915050565b6000620006be600019846008026200069e565b1980831691505092915050565b6000620006d98383620006ab565b9150826002028217905092915050565b620006f4826200049e565b67ffffffffffffffff81111562000710576200070f620002e9565b5b6200071c8254620004d8565b620007298282856200064e565b600060209050601f8311600181146200076157600084156200074c578287015190505b620007588582620006cb565b865550620007c8565b601f19841662000771866200050d565b60005b828110156200079b5784890151825560018201915060208501945060208101905062000774565b86831015620007bb5784890151620007b7601f891682620006ab565b8355505b6001600288020188555050505b505050505050565b600082825260208201905092915050565b7f4f776e61626c653a2063616c6c6572206973206e6f7420746865206f776e6572600082015250565b600062000819602083620007d0565b91506200082682620007e1565b602082019050919050565b600060208201905081810360008301526200084c816200080a565b9050919050565b61327580620008636000396000f3fe6080604052600436106101355760003560e01c806370a08231116100ab578063a22cb4651161006f578063a22cb465146103e1578063b88d4fde1461040a578063c87b56dd14610433578063e985e9c514610470578063f2fde38b146104ad578063f4a0a528146104d657610135565b806370a082311461030c578063715018a6146103495780638da5cb5b1461036057806391ba317a1461038b57806395d89b41146103b657610135565b806323b872dd116100fd57806323b872dd146102125780633ccfd60b1461023b57806342842e0e1461025257806355f804b31461027b5780636352211e146102a45780636817c76c146102e157610135565b806301ffc9a71461013a57806306fdde0314610177578063081812fc146101a2578063095ea7b3146101df5780631249c58b14610208575b600080fd5b34801561014657600080fd5b50610161600480360381019061015c9190611e98565b6104ff565b60405161016e9190611ee0565b60405180910390f35b34801561018357600080fd5b5061018c610560565b6040516101999190611f8b565b60405180910390f35b3480156101ae57600080fd5b506101c960048036038101906101c49190611fe3565b6105f2565b6040516101d69190612051565b60405180910390f35b3480156101eb57600080fd5b5061020660048036038101906102019190612098565b610638565b005b61021061074f565b005b34801561021e57600080fd5b50610239600480360381019061023491906120d8565b610805565b005b34801561024757600080fd5b50610250610865565b005b34801561025e57600080fd5b50610279600480360381019061027491906120d8565b610923565b005b34801561028757600080fd5b506102a2600480360381019061029d9190612260565b610943565b005b3480156102b057600080fd5b506102cb60048036038101906102c69190611fe3565b61095e565b6040516102d89190612051565b60405180910390f35b3480156102ed57600080fd5b506102f66109e4565b60405161030391906122b8565b60405180910390f35b34801561031857600080fd5b50610333600480360381019061032e91906122d3565b6109ea565b60405161034091906122b8565b60405180910390f35b34801561035557600080fd5b5061035e610aa1565b005b34801561036c57600080fd5b50610375610ab5565b6040516103829190612051565b60405180910390f35b34801561039757600080fd5b506103a0610adf565b6040516103ad91906122b8565b60405180910390f35b3480156103c257600080fd5b506103cb610ae4565b6040516103d89190611f8b565b60405180910390f35b3480156103ed57600080fd5b506104086004803603810190610403919061232c565b610b76565b005b34801561041657600080fd5b50610431600480360381019061042c919061240d565b610b8c565b005b34801561043f57600080fd5b5061045a60048036038101906104559190611fe3565b610bee565b6040516104679190611f8b565b60405180910390f35b34801561047c57600080fd5b5061049760048036038101906104929190612490565b610c70565b6040516104a49190611ee0565b60405180910390f35b3480156104b957600080fd5b506104d460048036038101906104cf91906122d3565b610d04565b005b3480156104e257600080fd5b506104fd60048036038101906104f89190611fe3565b610d87565b005b6000634906490660e01b7bffffffffffffffffffffffffffffffffffffffffffffffffffffffff1916827bffffffffffffffffffffffffffffffffffffffffffffffffffffffff19161480610559575061055882610d99565b5b9050919050565b60606000805461056f906124ff565b80601f016020809104026020016040519081016040528092919081815260200182805461059b906124ff565b80156105e85780601f106105bd576101008083540402835291602001916105e8565b820191906000526020600020905b8154815290600101906020018083116105cb57829003601f168201915b5050505050905090565b60006105fd82610e7b565b6004600083815260200190815260200160002060009054906101000a900473ffffffffffffffffffffffffffffffffffffffff169050919050565b60006106438261095e565b90508073ffffffffffffffffffffffffffffffffffffffff168373ffffffffffffffffffffffffffffffffffffffff16036106b3576040517f08c379a00000000000000000000000000000000000000000000000000000000081526004016106aa906125a2565b60405180910390fd5b8073ffffffffffffffffffffffffffffffffffffffff166106d2610ec6565b73ffffffffffffffffffffffffffffffffffffffff1614806107015750610700816106fb610ec6565b610c70565b5b610740576040517f08c379a000000000000000000000000000000000000000000000000000000000815260040161073790612634565b60405180910390fd5b61074a8383610ece565b505050565b600461075b6008610f87565b1061079b576040517f08c379a0000000000000000000000000000000000000000000000000000000008152600401610792906126a0565b60405180910390fd5b600a543410156107e0576040517f08c379a00000000000000000000000000000000000000000000000000000000081526004016107d79061270c565b60405180910390fd5b6107ea6008610f95565b60006107f66008610f87565b90506108023382610fab565b50565b610816610810610ec6565b82610fc9565b610855576040517f08c379a000000000000000000000000000000000000000000000000000000000815260040161084c9061279e565b60405180910390fd5b61086083838361105e565b505050565b61086d611357565b6000610877610ab5565b73ffffffffffffffffffffffffffffffffffffffff164760405161089a906127ef565b60006040518083038185875af1925050503d80600081146108d7576040519150601f19603f3d011682016040523d82523d6000602084013e6108dc565b606091505b5050905080610920576040517f08c379a000000000000000000000000000000000000000000000000000000000815260040161091790612850565b60405180910390fd5b50565b61093e83838360405180602001604052806000815250610b8c565b505050565b61094b611357565b806009908161095a9190612a1c565b5050565b60008061096a836113d5565b9050600073ffffffffffffffffffffffffffffffffffffffff168173ffffffffffffffffffffffffffffffffffffffff16036109db576040517f08c379a00000000000000000000000000000000000000000000000000000000081526004016109d290612b3a565b60405180910390fd5b80915050919050565b600a5481565b60008073ffffffffffffffffffffffffffffffffffffffff168273ffffffffffffffffffffffffffffffffffffffff1603610a5a576040517f08c379a0000000000000000000000000000000000000000000000000000000008152600401610a5190612bcc565b60405180910390fd5b600360008373ffffffffffffffffffffffffffffffffffffffff1673ffffffffffffffffffffffffffffffffffffffff168152602001908152602001600020549050919050565b610aa9611357565b610ab36000611412565b565b6000600760009054906101000a900473ffffffffffffffffffffffffffffffffffffffff16905090565b600481565b606060018054610af3906124ff565b80601f0160208091040260200160405190810160405280929190818152602001828054610b1f906124ff565b8015610b6c5780601f10610b4157610100808354040283529160200191610b6c565b820191906000526020600020905b815481529060010190602001808311610b4f57829003601f168201915b5050505050905090565b610b88610b81610ec6565b83836114d8565b5050565b610b9d610b97610ec6565b83610fc9565b610bdc576040517f08c379a0000000000000000000000000000000000000000000000000000000008152600401610bd39061279e565b60405180910390fd5b610be884848484611644565b50505050565b6060610bf9826116a0565b610c38576040517f08c379a0000000000000000000000000000000000000000000000000000000008152600401610c2f90612c5e565b60405180910390fd5b610c406116e1565b610c4983611773565b604051602001610c5a929190612d06565b6040516020818303038152906040529050919050565b6000600560008473ffffffffffffffffffffffffffffffffffffffff1673ffffffffffffffffffffffffffffffffffffffff16815260200190815260200160002060008373ffffffffffffffffffffffffffffffffffffffff1673ffffffffffffffffffffffffffffffffffffffff16815260200190815260200160002060009054906101000a900460ff16905092915050565b610d0c611357565b600073ffffffffffffffffffffffffffffffffffffffff168173ffffffffffffffffffffffffffffffffffffffff1603610d7b576040517f08c379a0000000000000000000000000000000000000000000000000000000008152600401610d7290612da7565b60405180910390fd5b610d8481611412565b50565b610d8f611357565b80600a8190555050565b60007f80ac58cd000000000000000000000000000000000000000000000000000000007bffffffffffffffffffffffffffffffffffffffffffffffffffffffff1916827bffffffffffffffffffffffffffffffffffffffffffffffffffffffff19161480610e6457507f5b5e139f000000000000000000000000000000000000000000000000000000007bffffffffffffffffffffffffffffffffffffffffffffffffffffffff1916827bffffffffffffffffffffffffffffffffffffffffffffffffffffffff1916145b80610e745750610e7382611841565b5b9050919050565b610e84816116a0565b610ec3576040517f08c379a0000000000000000000000000000000000000000000000000000000008152600401610eba90612b3a565b60405180910390fd5b50565b600033905090565b816004600083815260200190815260200160002060006101000a81548173ffffffffffffffffffffffffffffffffffffffff021916908373ffffffffffffffffffffffffffffffffffffffff160217905550808273ffffffffffffffffffffffffffffffffffffffff16610f418361095e565b73ffffffffffffffffffffffffffffffffffffffff167f8c5be1e5ebec7d5bd14f71427d1e84f3dd0314c0f7b2291e5b200ac8c7c3b92560405160405180910390a45050565b600081600001549050919050565b6001816000016000828254019250508190555050565b610fc58282604051806020016040528060008152506118ab565b5050565b600080610fd58361095e565b90508073ffffffffffffffffffffffffffffffffffffffff168473ffffffffffffffffffffffffffffffffffffffff16148061101757506110168185610c70565b5b8061105557508373ffffffffffffffffffffffffffffffffffffffff1661103d846105f2565b73ffffffffffffffffffffffffffffffffffffffff16145b91505092915050565b8273ffffffffffffffffffffffffffffffffffffffff1661107e8261095e565b73ffffffffffffffffffffffffffffffffffffffff16146110d4576040517f08c379a00000000000000000000000000000000000000000000000000000000081526004016110cb90612e39565b60405180910390fd5b600073ffffffffffffffffffffffffffffffffffffffff168273ffffffffffffffffffffffffffffffffffffffff1603611143576040517f08c379a000000000000000000000000000000000000000000000000000000000815260040161113a90612ecb565b60405180910390fd5b6111508383836001611906565b8273ffffffffffffffffffffffffffffffffffffffff166111708261095e565b73ffffffffffffffffffffffffffffffffffffffff16146111c6576040517f08c379a00000000000000000000000000000000000000000000000000000000081526004016111bd90612e39565b60405180910390fd5b6004600082815260200190815260200160002060006101000a81549073ffffffffffffffffffffffffffffffffffffffff02191690556001600360008573ffffffffffffffffffffffffffffffffffffffff1673ffffffffffffffffffffffffffffffffffffffff168152602001908152602001600020600082825403925050819055506001600360008473ffffffffffffffffffffffffffffffffffffffff1673ffffffffffffffffffffffffffffffffffffffff16815260200190815260200160002060008282540192505081905550816002600083815260200190815260200160002060006101000a81548173ffffffffffffffffffffffffffffffffffffffff021916908373ffffffffffffffffffffffffffffffffffffffff160217905550808273ffffffffffffffffffffffffffffffffffffffff168473ffffffffffffffffffffffffffffffffffffffff167fddf252ad1be2c89b69c2b068fc378daa952ba7f163c4a11628f55a4df523b3ef60405160405180910390a4611352838383600161190c565b505050565b61135f610ec6565b73ffffffffffffffffffffffffffffffffffffffff1661137d610ab5565b73ffffffffffffffffffffffffffffffffffffffff16146113d3576040517f08c379a00000000000000000000000000000000000000000000000000000000081526004016113ca90612f37565b60405180910390fd5b565b60006002600083815260200190815260200160002060009054906101000a900473ffffffffffffffffffffffffffffffffffffffff169050919050565b6000600760009054906101000a900473ffffffffffffffffffffffffffffffffffffffff16905081600760006101000a81548173ffffffffffffffffffffffffffffffffffffffff021916908373ffffffffffffffffffffffffffffffffffffffff1602179055508173ffffffffffffffffffffffffffffffffffffffff168173ffffffffffffffffffffffffffffffffffffffff167f8be0079c531659141344cd1fd0a4f28419497f9722a3daafe3b4186f6b6457e060405160405180910390a35050565b8173ffffffffffffffffffffffffffffffffffffffff168373ffffffffffffffffffffffffffffffffffffffff1603611546576040517f08c379a000000000000000000000000000000000000000000000000000000000815260040161153d90612fa3565b60405180910390fd5b80600560008573ffffffffffffffffffffffffffffffffffffffff1673ffffffffffffffffffffffffffffffffffffffff16815260200190815260200160002060008473ffffffffffffffffffffffffffffffffffffffff1673ffffffffffffffffffffffffffffffffffffffff16815260200190815260200160002060006101000a81548160ff0219169083151502179055508173ffffffffffffffffffffffffffffffffffffffff168373ffffffffffffffffffffffffffffffffffffffff167f17307eab39ab6107e8899845ad3d59bd9653f200f220920489ca2b5937696c31836040516116379190611ee0565b60405180910390a3505050565b61164f84848461105e565b61165b84848484611912565b61169a576040517f08c379a000000000000000000000000000000000000000000000000000000000815260040161169190613035565b60405180910390fd5b50505050565b60008073ffffffffffffffffffffffffffffffffffffffff166116c2836113d5565b73ffffffffffffffffffffffffffffffffffffffff1614159050919050565b6060600980546116f0906124ff565b80601f016020809104026020016040519081016040528092919081815260200182805461171c906124ff565b80156117695780601f1061173e57610100808354040283529160200191611769565b820191906000526020600020905b81548152906001019060200180831161174c57829003601f168201915b5050505050905090565b60606000600161178284611a99565b01905060008167ffffffffffffffff8111156117a1576117a0612135565b5b6040519080825280601f01601f1916602001820160405280156117d35781602001600182028036833780820191505090505b509050600082602001820190505b600115611836578080600190039150507f3031323334353637383961626364656600000000000000000000000000000000600a86061a8153600a858161182a57611829613055565b5b049450600085036117e1575b819350505050919050565b60007f01ffc9a7000000000000000000000000000000000000000000000000000000007bffffffffffffffffffffffffffffffffffffffffffffffffffffffff1916827bffffffffffffffffffffffffffffffffffffffffffffffffffffffff1916149050919050565b6118b58383611bec565b6118c26000848484611912565b611901576040517f08c379a00000000000000000000000000000000000000000000000000000000081526004016118f890613035565b60405180910390fd5b505050565b50505050565b50505050565b60006119338473ffffffffffffffffffffffffffffffffffffffff16611e09565b15611a8c578373ffffffffffffffffffffffffffffffffffffffff1663150b7a0261195c610ec6565b8786866040518563ffffffff1660e01b815260040161197e94939291906130d9565b6020604051808303816000875af19250505080156119ba57506040513d601f19601f820116820180604052508101906119b7919061313a565b60015b611a3c573d80600081146119ea576040519150601f19603f3d011682016040523d82523d6000602084013e6119ef565b606091505b506000815103611a34576040517f08c379a0000000000000000000000000000000000000000000000000000000008152600401611a2b90613035565b60405180910390fd5b805181602001fd5b63150b7a0260e01b7bffffffffffffffffffffffffffffffffffffffffffffffffffffffff1916817bffffffffffffffffffffffffffffffffffffffffffffffffffffffff191614915050611a91565b600190505b949350505050565b600080600090507a184f03e93ff9f4daa797ed6e38ed64bf6a1f0100000000000000008310611af7577a184f03e93ff9f4daa797ed6e38ed64bf6a1f0100000000000000008381611aed57611aec613055565b5b0492506040810190505b6d04ee2d6d415b85acef81000000008310611b34576d04ee2d6d415b85acef81000000008381611b2a57611b29613055565b5b0492506020810190505b662386f26fc100008310611b6357662386f26fc100008381611b5957611b58613055565b5b0492506010810190505b6305f5e1008310611b8c576305f5e1008381611b8257611b81613055565b5b0492506008810190505b6127108310611bb1576127108381611ba757611ba6613055565b5b0492506004810190505b60648310611bd45760648381611bca57611bc9613055565b5b0492506002810190505b600a8310611be3576001810190505b80915050919050565b600073ffffffffffffffffffffffffffffffffffffffff168273ffffffffffffffffffffffffffffffffffffffff1603611c5b576040517f08c379a0000000000000000000000000000000000000000000000000000000008152600401611c52906131b3565b60405180910390fd5b611c64816116a0565b15611ca4576040517f08c379a0000000000000000000000000000000000000000000000000000000008152600401611c9b9061321f565b60405180910390fd5b611cb2600083836001611906565b611cbb816116a0565b15611cfb576040517f08c379a0000000000000000000000000000000000000000000000000000000008152600401611cf29061321f565b60405180910390fd5b6001600360008473ffffffffffffffffffffffffffffffffffffffff1673ffffffffffffffffffffffffffffffffffffffff16815260200190815260200160002060008282540192505081905550816002600083815260200190815260200160002060006101000a81548173ffffffffffffffffffffffffffffffffffffffff021916908373ffffffffffffffffffffffffffffffffffffffff160217905550808273ffffffffffffffffffffffffffffffffffffffff16600073ffffffffffffffffffffffffffffffffffffffff167fddf252ad1be2c89b69c2b068fc378daa952ba7f163c4a11628f55a4df523b3ef60405160405180910390a4611e0560008383600161190c565b5050565b6000808273ffffffffffffffffffffffffffffffffffffffff163b119050919050565b6000604051905090565b600080fd5b600080fd5b60007fffffffff0000000000000000000000000000000000000000000000000000000082169050919050565b611e7581611e40565b8114611e8057600080fd5b50565b600081359050611e9281611e6c565b92915050565b600060208284031215611eae57611ead611e36565b5b6000611ebc84828501611e83565b91505092915050565b60008115159050919050565b611eda81611ec5565b82525050565b6000602082019050611ef56000830184611ed1565b92915050565b600081519050919050565b600082825260208201905092915050565b60005b83811015611f35578082015181840152602081019050611f1a565b60008484015250505050565b6000601f19601f8301169050919050565b6000611f5d82611efb565b611f678185611f06565b9350611f77818560208601611f17565b611f8081611f41565b840191505092915050565b60006020820190508181036000830152611fa58184611f52565b905092915050565b6000819050919050565b611fc081611fad565b8114611fcb57600080fd5b50565b600081359050611fdd81611fb7565b92915050565b600060208284031215611ff957611ff8611e36565b5b600061200784828501611fce565b91505092915050565b600073ffffffffffffffffffffffffffffffffffffffff82169050919050565b600061203b82612010565b9050919050565b61204b81612030565b82525050565b60006020820190506120666000830184612042565b92915050565b61207581612030565b811461208057600080fd5b50565b6000813590506120928161206c565b92915050565b600080604083850312156120af576120ae611e36565b5b60006120bd85828601612083565b92505060206120ce85828601611fce565b9150509250929050565b6000806000606084860312156120f1576120f0611e36565b5b60006120ff86828701612083565b935050602061211086828701612083565b925050604061212186828701611fce565b9150509250925092565b600080fd5b600080fd5b7f4e487b7100000000000000000000000000000000000000000000000000000000600052604160045260246000fd5b61216d82611f41565b810181811067ffffffffffffffff8211171561218c5761218b612135565b5b80604052505050565b600061219f611e2c565b90506121ab8282612164565b919050565b600067ffffffffffffffff8211156121cb576121ca612135565b5b6121d482611f41565b9050602081019050919050565b82818337600083830152505050565b60006122036121fe846121b0565b612195565b90508281526020810184848401111561221f5761221e612130565b5b61222a8482856121e1565b509392505050565b600082601f8301126122475761224661212b565b5b81356122578482602086016121f0565b91505092915050565b60006020828403121561227657612275611e36565b5b600082013567ffffffffffffffff81111561229457612293611e3b565b5b6122a084828501612232565b91505092915050565b6122b281611fad565b82525050565b60006020820190506122cd60008301846122a9565b92915050565b6000602082840312156122e9576122e8611e36565b5b60006122f784828501612083565b91505092915050565b61230981611ec5565b811461231457600080fd5b50565b60008135905061232681612300565b92915050565b6000806040838503121561234357612342611e36565b5b600061235185828601612083565b925050602061236285828601612317565b9150509250929050565b600067ffffffffffffffff82111561238757612386612135565b5b61239082611f41565b9050602081019050919050565b60006123b06123ab8461236c565b612195565b9050828152602081018484840111156123cc576123cb612130565b5b6123d78482856121e1565b509392505050565b600082601f8301126123f4576123f361212b565b5b813561240484826020860161239d565b91505092915050565b6000806000806080858703121561242757612426611e36565b5b600061243587828801612083565b945050602061244687828801612083565b935050604061245787828801611fce565b925050606085013567ffffffffffffffff81111561247857612477611e3b565b5b612484878288016123df565b91505092959194509250565b600080604083850312156124a7576124a6611e36565b5b60006124b585828601612083565b92505060206124c685828601612083565b9150509250929050565b7f4e487b7100000000000000000000000000000000000000000000000000000000600052602260045260246000fd5b6000600282049050600182168061251757607f821691505b60208210810361252a576125296124d0565b5b50919050565b7f4552433732313a20617070726f76616c20746f2063757272656e74206f776e6560008201527f7200000000000000000000000000000000000000000000000000000000000000602082015250565b600061258c602183611f06565b915061259782612530565b604082019050919050565b600060208201905081810360008301526125bb8161257f565b9050919050565b7f4552433732313a20617070726f76652063616c6c6572206973206e6f7420746f60008201527f6b656e206f776e6572206f7220617070726f76656420666f7220616c6c000000602082015250565b600061261e603d83611f06565b9150612629826125c2565b604082019050919050565b6000602082019050818103600083015261264d81612611565b9050919050565b7f4d6178696d756d206e756d626572206f6620746f6b656e73206d696e7465642e600082015250565b600061268a602083611f06565b915061269582612654565b602082019050919050565b600060208201905081810360008301526126b98161267d565b9050919050565b7f45746865722073656e74206973206e6f7420636f72726563742e000000000000600082015250565b60006126f6601a83611f06565b9150612701826126c0565b602082019050919050565b60006020820190508181036000830152612725816126e9565b9050919050565b7f4552433732313a2063616c6c6572206973206e6f7420746f6b656e206f776e6560008201527f72206f7220617070726f76656400000000000000000000000000000000000000602082015250565b6000612788602d83611f06565b91506127938261272c565b604082019050919050565b600060208201905081810360008301526127b78161277b565b9050919050565b600081905092915050565b50565b60006127d96000836127be565b91506127e4826127c9565b600082019050919050565b60006127fa826127cc565b9150819050919050565b7f5472616e73666572206661696c65642e00000000000000000000000000000000600082015250565b600061283a601083611f06565b915061284582612804565b602082019050919050565b600060208201905081810360008301526128698161282d565b9050919050565b60008190508160005260206000209050919050565b60006020601f8301049050919050565b600082821b905092915050565b6000600883026128d27fffffffffffffffffffffffffffffffffffffffffffffffffffffffffffffffff82612895565b6128dc8683612895565b95508019841693508086168417925050509392505050565b6000819050919050565b600061291961291461290f84611fad565b6128f4565b611fad565b9050919050565b6000819050919050565b612933836128fe565b61294761293f82612920565b8484546128a2565b825550505050565b600090565b61295c61294f565b61296781848461292a565b505050565b5b8181101561298b57612980600082612954565b60018101905061296d565b5050565b601f8211156129d0576129a181612870565b6129aa84612885565b810160208510156129b9578190505b6129cd6129c585612885565b83018261296c565b50505b505050565b600082821c905092915050565b60006129f3600019846008026129d5565b1980831691505092915050565b6000612a0c83836129e2565b9150826002028217905092915050565b612a2582611efb565b67ffffffffffffffff811115612a3e57612a3d612135565b5b612a4882546124ff565b612a5382828561298f565b600060209050601f831160018114612a865760008415612a74578287015190505b612a7e8582612a00565b865550612ae6565b601f198416612a9486612870565b60005b82811015612abc57848901518255600182019150602085019450602081019050612a97565b86831015612ad95784890151612ad5601f8916826129e2565b8355505b6001600288020188555050505b505050505050565b7f4552433732313a20696e76616c696420746f6b656e2049440000000000000000600082015250565b6000612b24601883611f06565b9150612b2f82612aee565b602082019050919050565b60006020820190508181036000830152612b5381612b17565b9050919050565b7f4552433732313a2061646472657373207a65726f206973206e6f74206120766160008201527f6c6964206f776e65720000000000000000000000000000000000000000000000602082015250565b6000612bb6602983611f06565b9150612bc182612b5a565b604082019050919050565b60006020820190508181036000830152612be581612ba9565b9050919050565b7f4552433732314d657461646174613a2055524920717565727920666f72206e6f60008201527f6e6578697374656e7420746f6b656e0000000000000000000000000000000000602082015250565b6000612c48602f83611f06565b9150612c5382612bec565b604082019050919050565b60006020820190508181036000830152612c7781612c3b565b9050919050565b600081905092915050565b6000612c9482611efb565b612c9e8185612c7e565b9350612cae818560208601611f17565b80840191505092915050565b7f2e6a736f6e000000000000000000000000000000000000000000000000000000600082015250565b6000612cf0600583612c7e565b9150612cfb82612cba565b600582019050919050565b6000612d128285612c89565b9150612d1e8284612c89565b9150612d2982612ce3565b91508190509392505050565b7f4f776e61626c653a206e6577206f776e657220697320746865207a65726f206160008201527f6464726573730000000000000000000000000000000000000000000000000000602082015250565b6000612d91602683611f06565b9150612d9c82612d35565b604082019050919050565b60006020820190508181036000830152612dc081612d84565b9050919050565b7f4552433732313a207472616e736665722066726f6d20696e636f72726563742060008201527f6f776e6572000000000000000000000000000000000000000000000000000000602082015250565b6000612e23602583611f06565b9150612e2e82612dc7565b604082019050919050565b60006020820190508181036000830152612e5281612e16565b9050919050565b7f4552433732313a207472616e7366657220746f20746865207a65726f2061646460008201527f7265737300000000000000000000000000000000000000000000000000000000602082015250565b6000612eb5602483611f06565b9150612ec082612e59565b604082019050919050565b60006020820190508181036000830152612ee481612ea8565b9050919050565b7f4f776e61626c653a2063616c6c6572206973206e6f7420746865206f776e6572600082015250565b6000612f21602083611f06565b9150612f2c82612eeb565b602082019050919050565b60006020820190508181036000830152612f5081612f14565b9050919050565b7f4552433732313a20617070726f766520746f2063616c6c657200000000000000600082015250565b6000612f8d601983611f06565b9150612f9882612f57565b602082019050919050565b60006020820190508181036000830152612fbc81612f80565b9050919050565b7f4552433732313a207472616e7366657220746f206e6f6e20455243373231526560008201527f63656976657220696d706c656d656e7465720000000000000000000000000000602082015250565b600061301f603283611f06565b915061302a82612fc3565b604082019050919050565b6000602082019050818103600083015261304e81613012565b9050919050565b7f4e487b7100000000000000000000000000000000000000000000000000000000600052601260045260246000fd5b600081519050919050565b600082825260208201905092915050565b60006130ab82613084565b6130b5818561308f565b93506130c5818560208601611f17565b6130ce81611f41565b840191505092915050565b60006080820190506130ee6000830187612042565b6130fb6020830186612042565b61310860408301856122a9565b818103606083015261311a81846130a0565b905095945050505050565b60008151905061313481611e6c565b92915050565b6000602082840312156131505761314f611e36565b5b600061315e84828501613125565b91505092915050565b7f4552433732313a206d696e7420746f20746865207a65726f2061646472657373600082015250565b600061319d602083611f06565b91506131a882613167565b602082019050919050565b600060208201905081810360008301526131cc81613190565b9050919050565b7f4552433732313a20746f6b656e20616c7265616479206d696e74656400000000600082015250565b6000613209601c83611f06565b9150613214826131d3565b602082019050919050565b60006020820190508181036000830152613238816131fc565b905091905056fea26469706673582212207ec23d66eba31a5239fe66ff9bbf8899ecc81a7da94ac22d213adb7e4d6c5f9664736f6c63430008180033",
  "linkReferences": {},
  "deployedLinkReferences": {}
}