{
  "contracts/Quiz/Quiz5.sol": {
    "Quiz5": {
      "abi": [
        {
          "inputs": [
            {
              "internalType": "uint256",
              "name": "a",
              "type": "uint256"
            }
          ],
          "name": "fun1",
          "outputs": [
            {
              "internalType": "bool",
              "name": "",
              "type": "bool"
            }
          ],
          "stateMutability": "pure",
          "type": "function"
        }
      ],
      "evm": {
        "bytecode": {
          "linkReferences": {},
          "object": "608060405234801561001057600080fd5b50610151806100206000396000f3fe608060405234801561001057600080fd5b506004361061002b5760003560e01c8063acd9fd6514610030575b600080fd5b61004a600480360381019061004591906100b8565b610060565b6040516100579190610100565b60405180910390f35b6000600b82106100735760019050610078565b600090505b919050565b600080fd5b6000819050919050565b61009581610082565b81146100a057600080fd5b50565b6000813590506100b28161008c565b92915050565b6000602082840312156100ce576100cd61007d565b5b60006100dc848285016100a3565b91505092915050565b60008115159050919050565b6100fa816100e5565b82525050565b600060208201905061011560008301846100f1565b9291505056fea2646970667358221220b7fb0ed86f807d680cec235a1b272704b15ff720158747e18d99f4f94d708b3264736f6c63430008180033",
          "opcodes": "PUSH1 0x80 PUSH1 0x40 MSTORE CALLVALUE DUP1 ISZERO PUSH2 0x10 JUMPI PUSH1 0x0 DUP1 REVERT JUMPDEST POP PUSH2 0x151 DUP1 PUSH2 0x20 PUSH1 0x0 CODECOPY PUSH1 0x0 RETURN INVALID PUSH1 0x80 PUSH1 0x40 MSTORE CALLVALUE DUP1 ISZERO PUSH2 0x10 JUMPI PUSH1 0x0 DUP1 REVERT JUMPDEST POP PUSH1 0x4 CALLDATASIZE LT PUSH2 0x2B JUMPI PUSH1 0x0 CALLDATALOAD PUSH1 0xE0 SHR DUP1 PUSH4 0xACD9FD65 EQ PUSH2 0x30 JUMPI JUMPDEST PUSH1 0x0 DUP1 REVERT JUMPDEST PUSH2 0x4A PUSH1 0x4 DUP1 CALLDATASIZE SUB DUP2 ADD SWAP1 PUSH2 0x45 SWAP2 SWAP1 PUSH2 0xB8 JUMP JUMPDEST PUSH2 0x60 JUMP JUMPDEST PUSH1 0x40 MLOAD PUSH2 0x57 SWAP2 SWAP1 PUSH2 0x100 JUMP JUMPDEST PUSH1 0x40 MLOAD DUP1 SWAP2 SUB SWAP1 RETURN JUMPDEST PUSH1 0x0 PUSH1 0xB DUP3 LT PUSH2 0x73 JUMPI PUSH1 0x1 SWAP1 POP PUSH2 0x78 JUMP JUMPDEST PUSH1 0x0 SWAP1 POP JUMPDEST SWAP2 SWAP1 POP JUMP JUMPDEST PUSH1 0x0 DUP1 REVERT JUMPDEST PUSH1 0x0 DUP2 SWAP1 POP SWAP2 SWAP1 POP JUMP JUMPDEST PUSH2 0x95 DUP2 PUSH2 0x82 JUMP JUMPDEST DUP2 EQ PUSH2 0xA0 JUMPI PUSH1 0x0 DUP1 REVERT JUMPDEST POP JUMP JUMPDEST PUSH1 0x0 DUP2 CALLDATALOAD SWAP1 POP PUSH2 0xB2 DUP2 PUSH2 0x8C JUMP JUMPDEST SWAP3 SWAP2 POP POP JUMP JUMPDEST PUSH1 0x0 PUSH1 0x20 DUP3 DUP5 SUB SLT ISZERO PUSH2 0xCE JUMPI PUSH2 0xCD PUSH2 0x7D JUMP JUMPDEST JUMPDEST PUSH1 0x0 PUSH2 0xDC DUP5 DUP3 DUP6 ADD PUSH2 0xA3 JUMP JUMPDEST SWAP2 POP POP SWAP3 SWAP2 POP POP JUMP JUMPDEST PUSH1 0x0 DUP2 ISZERO ISZERO SWAP1 POP SWAP2 SWAP1 POP JUMP JUMPDEST PUSH2 0xFA DUP2 PUSH2 0xE5 JUMP JUMPDEST DUP3 MSTORE POP POP JUMP JUMPDEST PUSH1 0x0 PUSH1 0x20 DUP3 ADD SWAP1 POP PUSH2 0x115 PUSH1 0x0 DUP4 ADD DUP5 PUSH2 0xF1 JUMP JUMPDEST SWAP3 SWAP2 POP POP JUMP INVALID LOG2 PUSH5 0x6970667358 0x22 SLT KECCAK256 0xB7 0xFB 0xE 0xD8 PUSH16 0x807D680CEC235A1B272704B15FF72015 DUP8 SELFBALANCE 0xE1 DUP14 SWAP10 DELEGATECALL 0xF9 0x4D PUSH17 0x8B3264736F6C6343000818003300000000 "
        },
        "methodIdentifiers": {
          "fun1(uint256)": "acd9fd65"
        }
      }
    }
  }
}