{
  "contracts/Quiz/Quiz4.sol": {
    "Quiz4": {
      "abi": [
        {
          "inputs": [],
          "name": "returnTwoValues",
          "outputs": [
            {
              "internalType": "string",
              "name": "",
              "type": "string"
            },
            {
              "internalType": "uint256",
              "name": "",
              "type": "uint256"
            }
          ],
          "stateMutability": "pure",
          "type": "function"
        }
      ],
      "evm": {
        "bytecode": {
          "linkReferences": {},
          "object": "608060405234801561001057600080fd5b506101a3806100206000396000f3fe608060405234801561001057600080fd5b506004361061002b5760003560e01c8063fbda060014610030575b600080fd5b61003861004f565b60405161004692919061013d565b60405180910390f35b6060600060056040518060400160405280600e81526020017f48656c6c6f20536f6c696469747900000000000000000000000000000000000081525090915091509091565b600081519050919050565b600082825260208201905092915050565b60005b838110156100ce5780820151818401526020810190506100b3565b60008484015250505050565b6000601f19601f8301169050919050565b60006100f682610094565b610100818561009f565b93506101108185602086016100b0565b610119816100da565b840191505092915050565b6000819050919050565b61013781610124565b82525050565b6000604082019050818103600083015261015781856100eb565b9050610166602083018461012e565b939250505056fea2646970667358221220d5001ebc4abac2379f9488920886ce4c870dc10f7fff149e926f76aa6e64a5bc64736f6c63430008180033",
          "opcodes": "PUSH1 0x80 PUSH1 0x40 MSTORE CALLVALUE DUP1 ISZERO PUSH2 0x10 JUMPI PUSH1 0x0 DUP1 REVERT JUMPDEST POP PUSH2 0x1A3 DUP1 PUSH2 0x20 PUSH1 0x0 CODECOPY PUSH1 0x0 RETURN INVALID PUSH1 0x80 PUSH1 0x40 MSTORE CALLVALUE DUP1 ISZERO PUSH2 0x10 JUMPI PUSH1 0x0 DUP1 REVERT JUMPDEST POP PUSH1 0x4 CALLDATASIZE LT PUSH2 0x2B JUMPI PUSH1 0x0 CALLDATALOAD PUSH1 0xE0 SHR DUP1 PUSH4 0xFBDA0600 EQ PUSH2 0x30 JUMPI JUMPDEST PUSH1 0x0 DUP1 REVERT JUMPDEST PUSH2 0x38 PUSH2 0x4F JUMP JUMPDEST PUSH1 0x40 MLOAD PUSH2 0x46 SWAP3 SWAP2 SWAP1 PUSH2 0x13D JUMP JUMPDEST PUSH1 0x40 MLOAD DUP1 SWAP2 SUB SWAP1 RETURN JUMPDEST PUSH1 0x60 PUSH1 0x0 PUSH1 0x5 PUSH1 0x40 MLOAD DUP1 PUSH1 0x40 ADD PUSH1 0x40 MSTORE DUP1 PUSH1 0xE DUP2 MSTORE PUSH1 0x20 ADD PUSH32 0x48656C6C6F20536F6C6964697479000000000000000000000000000000000000 DUP2 MSTORE POP SWAP1 SWAP2 POP SWAP2 POP SWAP1 SWAP2 JUMP JUMPDEST PUSH1 0x0 DUP2 MLOAD SWAP1 POP SWAP2 SWAP1 POP JUMP JUMPDEST PUSH1 0x0 DUP3 DUP3 MSTORE PUSH1 0x20 DUP3 ADD SWAP1 POP SWAP3 SWAP2 POP POP JUMP JUMPDEST PUSH1 0x0 JUMPDEST DUP4 DUP2 LT ISZERO PUSH2 0xCE JUMPI DUP1 DUP3 ADD MLOAD DUP2 DUP5 ADD MSTORE PUSH1 0x20 DUP2 ADD SWAP1 POP PUSH2 0xB3 JUMP JUMPDEST PUSH1 0x0 DUP5 DUP5 ADD MSTORE POP POP POP POP JUMP JUMPDEST PUSH1 0x0 PUSH1 0x1F NOT PUSH1 0x1F DUP4 ADD AND SWAP1 POP SWAP2 SWAP1 POP JUMP JUMPDEST PUSH1 0x0 PUSH2 0xF6 DUP3 PUSH2 0x94 JUMP JUMPDEST PUSH2 0x100 DUP2 DUP6 PUSH2 0x9F JUMP JUMPDEST SWAP4 POP PUSH2 0x110 DUP2 DUP6 PUSH1 0x20 DUP7 ADD PUSH2 0xB0 JUMP JUMPDEST PUSH2 0x119 DUP2 PUSH2 0xDA JUMP JUMPDEST DUP5 ADD SWAP2 POP POP SWAP3 SWAP2 POP POP JUMP JUMPDEST PUSH1 0x0 DUP2 SWAP1 POP SWAP2 SWAP1 POP JUMP JUMPDEST PUSH2 0x137 DUP2 PUSH2 0x124 JUMP JUMPDEST DUP3 MSTORE POP POP JUMP JUMPDEST PUSH1 0x0 PUSH1 0x40 DUP3 ADD SWAP1 POP DUP2 DUP2 SUB PUSH1 0x0 DUP4 ADD MSTORE PUSH2 0x157 DUP2 DUP6 PUSH2 0xEB JUMP JUMPDEST SWAP1 POP PUSH2 0x166 PUSH1 0x20 DUP4 ADD DUP5 PUSH2 0x12E JUMP JUMPDEST SWAP4 SWAP3 POP POP POP JUMP INVALID LOG2 PUSH5 0x6970667358 0x22 SLT KECCAK256 0xD5 STOP 0x1E 0xBC BLOBBASEFEE 0xBA 0xC2 CALLDATACOPY SWAP16 SWAP5 DUP9 SWAP3 ADDMOD DUP7 0xCE 0x4C DUP8 0xD 0xC1 0xF PUSH32 0xFF149E926F76AA6E64A5BC64736F6C6343000818003300000000000000000000 "
        },
        "methodIdentifiers": {
          "returnTwoValues()": "fbda0600"
        }
      }
    }
  }
}