{
  "_format": "hh-sol-artifact-1",
  "contractName": "Ex2_3",
  "sourceName": "contracts/Ex2_3.sol",
  "abi": [
    {
      "inputs": [],
      "name": "assignment",
      "outputs": [
        {
          "internalType": "int256",
          "name": "",
          "type": "int256"
        },
        {
          "internalType": "uint256",
          "name": "",
          "type": "uint256"
        },
        {
          "internalType": "bool",
          "name": "",
          "type": "bool"
        },
        {
          "internalType": "bytes",
          "name": "",
          "type": "bytes"
        },
        {
          "internalType": "string",
          "name": "",
          "type": "string"
        },
        {
          "internalType": "address",
          "name": "",
          "type": "address"
        }
      ],
      "stateMutability": "view",
      "type": "function"
    }
  ],
  "bytecode": "0x608060405234801561001057600080fd5b5061043d806100206000396000f3fe608060405234801561001057600080fd5b506004361061002b5760003560e01c806371ca2ecf14610030575b600080fd5b610038610053565b60405161004a96959493929190610338565b60405180910390f35b600080600060608060008054600154600260009054906101000a900460ff1660036004600560009054906101000a900473ffffffffffffffffffffffffffffffffffffffff168280546100a5906103d6565b80601f01602080910402602001604051908101604052809291908181526020018280546100d1906103d6565b801561011e5780601f106100f35761010080835404028352916020019161011e565b820191906000526020600020905b81548152906001019060200180831161010157829003601f168201915b50505050509250818054610131906103d6565b80601f016020809104026020016040519081016040528092919081815260200182805461015d906103d6565b80156101aa5780601f1061017f576101008083540402835291602001916101aa565b820191906000526020600020905b81548152906001019060200180831161018d57829003601f168201915b50505050509150955095509550955095509550909192939495565b6000819050919050565b6101d8816101c5565b82525050565b6000819050919050565b6101f1816101de565b82525050565b60008115159050919050565b61020c816101f7565b82525050565b600081519050919050565b600082825260208201905092915050565b60005b8381101561024c578082015181840152602081019050610231565b60008484015250505050565b6000601f19601f8301169050919050565b600061027482610212565b61027e818561021d565b935061028e81856020860161022e565b61029781610258565b840191505092915050565b600081519050919050565b600082825260208201905092915050565b60006102c9826102a2565b6102d381856102ad565b93506102e381856020860161022e565b6102ec81610258565b840191505092915050565b600073ffffffffffffffffffffffffffffffffffffffff82169050919050565b6000610322826102f7565b9050919050565b61033281610317565b82525050565b600060c08201905061034d60008301896101cf565b61035a60208301886101e8565b6103676040830187610203565b81810360608301526103798186610269565b9050818103608083015261038d81856102be565b905061039c60a0830184610329565b979650505050505050565b7f4e487b7100000000000000000000000000000000000000000000000000000000600052602260045260246000fd5b600060028204905060018216806103ee57607f821691505b602082108103610401576104006103a7565b5b5091905056fea2646970667358221220ae09fffb79c1c8ed1a3246540c625a84b2bc87cd245e6679a55f95aeb31b22fc64736f6c63430008180033",
  "linkReferences": {},
  "deployedLinkReferences": {}
}