{
  "_format": "hh-sol-artifact-1",
  "contractName": "Ex3_9",
  "sourceName": "contracts/Exercise/Ex3_9.sol",
  "abi": [
    {
      "inputs": [],
      "name": "a",
      "outputs": [
        {
          "internalType": "uint256",
          "name": "",
          "type": "uint256"
        }
      ],
      "stateMutability": "view",
      "type": "function"
    },
    {
      "inputs": [
        {
          "internalType": "uint256",
          "name": "b",
          "type": "uint256"
        }
      ],
      "name": "myFun",
      "outputs": [
        {
          "internalType": "uint256",
          "name": "",
          "type": "uint256"
        }
      ],
      "stateMutability": "nonpayable",
      "type": "function"
    }
  ],
  "bytecode": "0x6080604052600360005534801561001557600080fd5b5061016a806100256000396000f3fe608060405234801561001057600080fd5b50600436106100365760003560e01c80630dbe671f1461003b5780639671295814610059575b600080fd5b610043610089565b60405161005091906100bb565b60405180910390f35b610073600480360381019061006e9190610107565b61008f565b60405161008091906100bb565b60405180910390f35b60005481565b6000816000819055506000549050919050565b6000819050919050565b6100b5816100a2565b82525050565b60006020820190506100d060008301846100ac565b92915050565b600080fd5b6100e4816100a2565b81146100ef57600080fd5b50565b600081359050610101816100db565b92915050565b60006020828403121561011d5761011c6100d6565b5b600061012b848285016100f2565b9150509291505056fea2646970667358221220357ebf7bd5b0c067961f314276d152f97df53a6f99156af8f7a3a1036f6084bb64736f6c63430008180033",
  "linkReferences": {},
  "deployedLinkReferences": {}
}