{
  "_format": "hh-sol-artifact-1",
  "contractName": "Quiz6",
  "sourceName": "contracts/Quiz/Quiz6.sol",
  "abi": [
    {
      "inputs": [],
      "name": "fun1",
      "outputs": [
        {
          "internalType": "uint256",
          "name": "",
          "type": "uint256"
        }
      ],
      "stateMutability": "pure",
      "type": "function"
    }
  ],
  "bytecode": "0x608060405234801561001057600080fd5b50610153806100206000396000f3fe608060405234801561001057600080fd5b506004361061002b5760003560e01c8063446a45b714610030575b600080fd5b61003861004e565b604051610045919061009f565b60405180910390f35b600080600090506000600190505b600b81101561007e57808261007191906100e9565b915080600101905061005c565b508091505090565b6000819050919050565b61009981610086565b82525050565b60006020820190506100b46000830184610090565b92915050565b7f4e487b7100000000000000000000000000000000000000000000000000000000600052601160045260246000fd5b60006100f482610086565b91506100ff83610086565b9250828201905080821115610117576101166100ba565b5b9291505056fea2646970667358221220447a55d5729bbb882a07ef5fcd888e0aaf1d301d680e2939f4349a5e4d22626864736f6c63430008180033",
  "linkReferences": {},
  "deployedLinkReferences": {}
}