{
  "_format": "hh-sol-artifact-1",
  "contractName": "Quiz2",
  "sourceName": "contracts/Quiz/Quiz2.sol",
  "abi": [
    {
      "inputs": [
        {
          "internalType": "string",
          "name": "str",
          "type": "string"
        }
      ],
      "name": "getString",
      "outputs": [
        {
          "internalType": "string",
          "name": "",
          "type": "string"
        }
      ],
      "stateMutability": "pure",
      "type": "function"
    }
  ],
  "bytecode": "0x608060405234801561001057600080fd5b506102e4806100206000396000f3fe608060405234801561001057600080fd5b506004361061002b5760003560e01c80639c981fcb14610030575b600080fd5b61004a600480360381019061004591906101c4565b610060565b604051610057919061028c565b60405180910390f35b6060819050919050565b6000604051905090565b600080fd5b600080fd5b600080fd5b600080fd5b6000601f19601f8301169050919050565b7f4e487b7100000000000000000000000000000000000000000000000000000000600052604160045260246000fd5b6100d182610088565b810181811067ffffffffffffffff821117156100f0576100ef610099565b5b80604052505050565b600061010361006a565b905061010f82826100c8565b919050565b600067ffffffffffffffff82111561012f5761012e610099565b5b61013882610088565b9050602081019050919050565b82818337600083830152505050565b600061016761016284610114565b6100f9565b90508281526020810184848401111561018357610182610083565b5b61018e848285610145565b509392505050565b600082601f8301126101ab576101aa61007e565b5b81356101bb848260208601610154565b91505092915050565b6000602082840312156101da576101d9610074565b5b600082013567ffffffffffffffff8111156101f8576101f7610079565b5b61020484828501610196565b91505092915050565b600081519050919050565b600082825260208201905092915050565b60005b8381101561024757808201518184015260208101905061022c565b60008484015250505050565b600061025e8261020d565b6102688185610218565b9350610278818560208601610229565b61028181610088565b840191505092915050565b600060208201905081810360008301526102a68184610253565b90509291505056fea264697066735822122055f942d066886f93a360cfae3c71d8b3e5bdaf53c9af97fec7d784f3cef03a9d64736f6c63430008180033",
  "linkReferences": {},
  "deployedLinkReferences": {}
}