{
  "_format": "hh-sol-artifact-1",
  "contractName": "Quiz1",
  "sourceName": "contracts/Quiz/Quiz1.sol",
  "abi": [
    {
      "inputs": [],
      "name": "returnValue5",
      "outputs": [
        {
          "internalType": "uint256",
          "name": "",
          "type": "uint256"
        }
      ],
      "stateMutability": "pure",
      "type": "function"
    }
  ],
  "bytecode": "0x608060405234801561001057600080fd5b5060b68061001f6000396000f3fe6080604052348015600f57600080fd5b506004361060285760003560e01c8063a01f42c114602d575b600080fd5b60336047565b604051603e91906067565b60405180910390f35b60006005905090565b6000819050919050565b6061816050565b82525050565b6000602082019050607a6000830184605a565b9291505056fea2646970667358221220a749a2bf31df50044d1fbe0bee8545ed9df8be8eb94c7cd0bd5faa28d4ece58f64736f6c63430008180033",
  "linkReferences": {},
  "deployedLinkReferences": {}
}